:020000040800F2
:1000000000000220B90200086D4100086F4100089D
:1000100071410008734100087541000800000000AC
:100020000000000000000000000000007741000810
:1000300079410008000000007B4100087D41000874
:10004000E5030008E5030008E5030008E5030008F0
:10005000E5030008E503000841410008E503000846
:10006000E5030008E5030008E50300084D4100082A
:10007000E5030008E5030008E5030008E5030008C0
:100080005D410008E5030008E5030008E5030008FA
:10009000E5030008E5030008E5030008E5030008A0
:1000A000E5030008E5030008E5030008E503000890
:1000B000E5030008E5030008E5030008E503000880
:1000C000E5030008E5030008E5030008E503000870
:1000D000E5030008E5030008E5030008E503000860
:1000E000E5030008E5030008E5030008E503000850
:1000F000E5030008E5030008E5030008E503000840
:10010000E5030008E5030008E5030008E50300082F
:10011000E5030008E5030008D52A0008E503000808
:10012000E5030008E5030008E5030008E50300080F
:10013000E5030008E5030008E5030008E5030008FF
:10014000E5030008E5030008E5030008E5030008EF
:10015000E5030008E5030008E5030008E5030008DF
:10016000E5030008E5030008E5030008E5030008CF
:10017000E5030008E5030008E503000800000000AF
:10018000E5030008E503000800B583B002F08EFF28
:10019000384B394A1360394A1360394906E011680F
:1001A0001960043304329842F9D82146354B9942FC
:1001B00005D20A684B6801F10C048868F3E72E4BFE
:1001C0001A68314B9A4200D0FEE72C4B1A682F4B2D
:1001D0009A42F9D1274B2E4A13602E4A13602E4BB8
:1001E00005E00020106004329342FAD80B462B4AF7
:1001F000934204D2194651F8082B5B68F4E7244B6C
:100200001B6813B9234B1B6803B1FEE703F0DAFE4A
:10021000694601A802F030FD214B224CE41AA410DB
:100220000025AC4214DC204B204CE41AA41000251D
:10023000AC4213DC0099019803F01AFF05461C4BF1
:100240001C4CE41AA410002C0EDC284602F0B0FC72
:10025000134B53F8253098470135E2E7124B53F81A
:10026000253098470135E3E7013C114B53F8243022
:100270009847E8E7BABADECA0000002078020020FA
:10028000E8030008000400087856341232547698C7
:100290007C0200202CC60120000400081004000885
:1002A00010040008100400081004000810040008DE
:1002B000100400081004000808B5FFF765FF00BE31
:1002C000FEE71EF0040F0CBFEFF30880EFF3098088
:1002D0007146414A10472DE9F04182B004468846F4
:1002E000124B5E6B9F6B9D6A1B6B13F0020F03D06A
:1002F0000E4BDB6A002B0CDB0D4802F073FECDF8D1
:1003000000803B4632462946204602F0DDFE00BE14
:10031000FEE74BF6AB6102F051FF0028ECD04FF046
:100320000042024BDA6202B0BDE8F08100ED00E06D
:1003300014A5000800BEFEE71EF0040F0CBFEFF38B
:100340000880EFF309807146244A10472DE9F041F7
:1003500082B004468846084B5E6B9F6B9D6A0748D7
:1003600002F040FECDF800803B463246294620464A
:1003700002F0AAFE00BEFEE700ED00E024A50008A2
:100380001EF0040F0CBFEFF30880EFF309807146F5
:10039000134A10472DE9F04182B004468846084BC5
:1003A0005E6B9F6B9D6A074802F01CFECDF80080D3
:1003B0003B4632462946204602F086FE00BEFEE756
:1003C00000ED00E030A5000800BEFEE700BEFEE73D
:1003D00000BEFEE770470000D70200084D0300088A
:0803E0009503000800BEFEE7D2
:1003E800C0AB0008000000207C020020C0AB000861
:1003F80000000010000000107C02002030C6012020
:080408000000001000000010CC
:1004100030B587B00C46054658B9002300931A4BF7
:100420001A6B42F001021A631B6B03F00103009385
:10043000009B1CB1012C0FD007B030BD01230193EC
:100440000023029303930223049301A90F4B53F853
:10045000250000F08FFBEDE70123019300240394B6
:10046000022304930A4B029301A9084B53F8250079
:1004700000F080FB22460F21062000F067F80620DE
:1004800000F0A8F8D8E700BF0038024004000020C0
:100490000000311008B50121024B53F8200000F094
:1004A000E7FC08BD040000207047000008B5094BB8
:1004B0001A6842F400721A601A6842F480621A6084
:1004C000032000F025F80F2002F0B2FAFFF7ECFF4E
:1004D000002008BD003C0240024A1368013313604B
:1004E000704700BF54040020014B1868704700BFDC
:1004F0005404002010B582B00190FFF7F5FF0446C8
:10050000FFF7F2FF001B019B9842F9D302B010BD28
:1005100010B50446C31E042B0FD80A4AD36823F42F
:10052000E0631B041B0C240204F4E064234343F047
:10053000BF6343F40033D36010BDA421024802F02E
:1005400047FDEAE700ED00E010A2000870B505469F
:100550000C4616460F2A24D80F2C27D81A4BDB68D6
:10056000C3F30223C3F10702042A28BF0422191D82
:10057000062920D9033B012101FA02F2013A144075
:100580009C4001FA03F3013B33401C43002D14DB74
:100590002401E4B205F1604505F5614585F80043A5
:1005A00070BDBC21094802F013FDD5E7BD21074805
:1005B00002F00EFDD2E70023DDE705F00F05240170
:1005C000E4B2034B5C5570BD00ED00E010A20008E2
:1005D00014ED00E010B5041E09DB620904F01F04ED
:1005E000012303FA04F4044B43F8224010BDD02148
:1005F000024802F0EDFCF0E700E100E010A2000884
:10060000704708B5FFF7FCFF08BD30B405682C68DB
:1006100024F480242C60046863608368402B05D038
:10062000036899600368DA6030BC704703689A60B9
:100630000368D960F8E700000268D3B2103B0B49A9
:10064000A1FB03131B090A49C95C4165032B06D8AA
:1006500022F47F7222F003020265006D704722F4DB
:100660007F7222F0030204320265F6E7ABAAAAAA5F
:1006700074A20008002800F00C8110B5044603683D
:10068000854A934231D0183293422ED01832934289
:100690002BD01832934228D01832934225D01832EA
:1006A000934222D0183293421FD0183293421CD06A
:1006B00002F55672934218D01832934215D0183270
:1006C000934212D0183293420FD0183293420CD07A
:1006D0001832934209D01832934206D0183293420E
:1006E00003D0C5216D4802F073FC6368C3B1B3F158
:1006F000007F15D0B3F1806F12D0B3F1C06F0FD06F
:10070000B3F1006F0CD0B3F1206F09D0B3F1406F9B
:1007100006D0B3F1606F03D0C621604802F058FCE8
:10072000A3683BB1402B05D0802B03D0C7215B4889
:1007300002F04EFCE368B3F5007F02D0002B40F0DE
:1007400091802369B3F5806F02D0002B40F08F8039
:1007500063694BB1B3F5006F06D0B3F5805F03D08A
:10076000CA214E4802F034FCA3694BB1B3F5005FD7
:1007700006D0B3F5804F03D0CB21484802F028FCC7
:10078000E36943B1B3F5807F05D0202B03D0CC21A2
:10079000424802F01DFC236A63B1B3F5803F09D0E3
:1007A000B3F5003F06D0B3F5403F03D0CD213B4821
:1007B00002F00EFC636A2BB1042B03D0CE21374824
:1007C00002F006FC636A03B3A36A032B54D8E36AFE
:1007D00063B1B3F5000F09D0B3F1807F06D0B3F158
:1007E000C07F03D0D4212D4802F0F2FB236B63B10C
:1007F000B3F5001F09D0B3F5800F06D0B3F5C00FD5
:1008000003D0D521254802F0E3FB022384F83530DC
:1008100021680B68224A1A406368A0680343E068B5
:1008200003432069034360690343A0690343E0690C
:100830000343206A03431343626A042A21D00B60F6
:100840002268536923F00703616A0B4304291DD012
:1008500053612046FFF7F0FE0020E064012384F896
:10086000353010BDC8210D4802F0B2FB69E7C9213F
:100870000A4802F0ADFB6BE7D321084802F0A8FB61
:10088000A5E7E26A206B02431343D8E7A16A0B4352
:10089000DEE70120704700BF1060024044A200085C
:1008A0003F8010F030B338B5044690F83530DBB2F5
:1008B000022B21D00268136823F001031360036840
:1008C00000251D6003685D6003689D600368DD604E
:1008D00003681D61036821225A61FFF7ADFE626D56
:1008E0003F2393408360E56484F8355084F83450A6
:1008F000284638BD01207047012038BDF8B590F872
:100900003440012C30D01D4616460F4604460123C4
:1009100080F83430022380F835306A1E4FF6FE73BB
:100920009A421BD82068036823F0010303602B461A
:10093000324639462046FFF768FE2268136843F0C6
:100940001E0313602268536943F0800353612268D9
:10095000136843F0010313600020F8BD40F29911C1
:10096000024802F035FBDDE70220F8BD44A2000892
:1009700038B504460268136823F001031360FFF7DB
:10098000B3FD054623681B6813F0010F10D0FFF775
:10099000ABFD401BB0F57A7FF4D9E36C43F0200344
:1009A000E364002384F83430032084F8350038BD34
:1009B000002084F83400012384F8353038BD00006D
:1009C00038B50446056D2A68416D08238B401A42EC
:1009D00019D003681A6812F0040F14D01A6822F0B4
:1009E00004021A60426D08239340AB60C36C43F06D
:1009F0000103C364042380F83530002380F83430C9
:100A0000836C03B198472A68616D584B8B401A423A
:100A10001AD023685A6912F0800F15D05A6922F053
:100A200080025A61626D514B9340AB60E36C43F0BE
:100A30000203E364042384F83530002384F834305F
:100A4000A36C0BB1204698472A68616D484B8B40D8
:100A50001A421AD023681A6812F0020F15D01A68C9
:100A600022F002021A60626D414B9340AB60E36C6E
:100A700043F00403E364042384F83530002384F84E
:100A80003430A36C0BB1204698472A68616D10235F
:100A90008B401A422DD02268116811F0080F28D01F
:100AA000116811F4802F11D0AB6023681A6812F41A
:100AB000002F03D1312384F8353016E01B6813F47E
:100AC000002F12D0412384F835300EE0136813F460
:100AD000807F03D1136823F008031360626D102335
:100AE0009340AB60312384F83530236C0BB1204642
:100AF00098472A68616D20238B401A4234D02268BF
:100B0000116811F0100F2FD0116811F4802F13D03D
:100B1000AB6023681A6812F4002F04D1636C1BB316
:100B20002046984738BD1B6813F4002F1CD0E36B98
:100B3000D3B12046984738BD136813F4807F03D1A2
:100B4000136823F010031360626D20239340AB60A1
:100B5000E36CE364112384F83530002384F83430E7
:100B6000E36B0BB12046984738BD00BF0100800001
:100B7000040080002DE9F04782B080460F46B54B57
:100B8000984223D003F5806398421FD003F5806319
:100B900098421BD003F58063984217D003F5806319
:100BA000984213D003F5806398420FD003F5806319
:100BB00098420BD003F58063984207D003F5806319
:100BC000984203D0C521A44802F002FA3B8853B3EF
:100BD0007B68012B22D9112B20D0022B1ED0122B87
:100BE0001CD09E4A934219D002F58012934215D030
:100BF00002F58012934211D0A2F5F81293420DD063
:100C000002F58012934209D002F58012934205D07A
:100C1000032B03D0C721904802F0DAF9BB68022BFE
:100C200006D800257AE0C6218B4802F0D1F9CFE73B
:100C3000C821894802F0CCF9F3E73B69FBB1092BE5
:100C40001DD0012B1BD0022B19D0032B17D0042B46
:100C500015D0052B13D0062B11D0072B0FD0082B46
:100C60000DD00A2B0BD00B2B09D00C2B07D00D2B42
:100C700005D00F2B03D0D921774802F0A9F9E90854
:100C8000083158F8213005F0070292000F209040FB
:100C900023EA0003386900FA02F2134348F82130CE
:100CA0004CE0EC216C4802F093F963E0082100E08D
:100CB0000021A1400A430233694941F82320694BCE
:100CC0001A686FEA090302EA0301786810F4803FAA
:100CD00001D049EA0201634A1160526803EA020145
:100CE000786810F4003F01D049EA02015D4A516082
:100CF000926803EA0201786810F4801F01D049EA83
:100D00000201584A9160D2681340796811F4001FBB
:100D100001D049EA0203534AD36001350F2D00F296
:100D200096800124AC403B6804EA03094C45F4D1A9
:100D30007B68022B81D0122B3FF47FAFD8F80030B4
:100D40004FEA450A032606FA0AF6F64333407A6864
:100D500002F0030202FA0AF21343C8F800307B687B
:100D60005A1E012A03D9112B01D0122B16D1FB6870
:100D7000032B96D8D8F808303340FA6802FA0AF202
:100D80001343C8F80830D8F8043023EA04047B6819
:100D9000C3F30013AB401C43C8F80440D8F80C3030
:100DA0001E40BB6803FA0AF31E43C8F80C607B6858
:100DB00013F0805FB1D0002301932B4B5A6C42F4A7
:100DC00080425A645B6C03F480430193019BAB083F
:100DD000991C234A52F8212005F003018C000F21B1
:100DE000A14022EA01021B4880453FF461AF1F4940
:100DF00088451ED001F5806188451CD001F58061D1
:100E000088451AD001F58061884518D001F58061C8
:100E1000884516D001F58061884514D001F58061C0
:100E2000884512D001F5806188453FF43FAF092124
:100E30003FE701213DE702213BE7032139E7042198
:100E400037E7052135E7062133E7072131E702B00F
:100E5000BDE8F087000002407CA2000800001110ED
:100E600000380140003C01400038024000040240CC
:100E700038B505460C4621B12B691C4207D100202C
:100E800038BD4FF4C871034802F0A2F8F4E701201E
:100E900038BD00BF7CA2000870B5064615460C465A
:100EA00051B1012D04D94FF4D971074802F090F8DF
:100EB00045B92404B46170BD40F2B111024802F09A
:100EC00087F8EEE7B46170BD7CA2000808B5054B59
:100ED0005B69034200D108BD024B586103F030FA50
:100EE000F9E700BF003C01407047704708B5806BD0
:100EF000FFF7FBFF08BD704708B5806B03F03AFEB3
:100F000008BD08B5806B002343854386012380F824
:100F10003D30036C43F02003036403F039FE08BD49
:100F200090F83D007047000008B5836B02681268B6
:100F300012F4807F11D11A6A012A12D019684A6806
:100F400022F002024A6000225A8593F83D20D2B274
:100F5000322A23D0012283F83D201846FFF7CBFF29
:100F600008BD1A68D16901F44071B1F5007F03D062
:100F7000D16911F4407F04D1516821F00201516020
:100F8000E1E70A498A4206D04FF040214A6822F040
:100F900002024A60D7E7A1F58061F7E75A8E92B264
:100FA000002ADAD1012283F83D20D6E7003800403C
:100FB00008B5836B0268126812F4807F11D11A6A37
:100FC000012A12D019684A6822F001024A60002200
:100FD0005A8693F83D20D2B2322A23D0012283F8D8
:100FE0003D20184603F0BAFD08BD1A68D16901F426
:100FF0004071B1F5007F03D0D16911F4407F0CD16D
:101000000C498A4206D04FF040214A6822F0010282
:101010004A60DCE7A1F58061F7E7516821F0010142
:101020005160D4E75A8D92B2002ADAD1012283F8B6
:101030003D20D6E700380040002900F0DC8070B584
:1010400082B00D46002A00F0D880002B00F0D78037
:1010500090F83D40E4B2012C02D0022002B070BDF5
:101060004162C2620168C96901F00701032969D0C0
:10107000052967D0038543850386438690F83C3075
:10108000DBB2012B00F0BD8016460446012380F838
:101090003C30322380F83D3000230364836B5A4A8E
:1010A0001A64836B594ADA63826B594B9364426BBF
:1010B00058491164426B5849D163426B936402688A
:1010C000D36903F44073B3F5007F01D0002B47D1FF
:1010D000A06B524B9A423CD04FF04021238E9BB2E2
:1010E00032460C31FFF70AFC22684C4B9A4232D050
:1010F0004FF04022536843F0010353602268238D70
:101100009BB20C322946606BFFF7F8FB22685368EC
:1011100043F0020353602368DA6912F4806F0DD143
:101120003E4A934219D04FF04022D36943F4806382
:10113000D3612268D36943F48063D361002084F8CB
:101140003C008BE75B009BB20385438503864386A7
:1011500094E73349C2E7324ACCE7A2F58062E4E77C
:10116000406B2E4B9A4232D04FF04022238D9BB2DF
:101170000C322946FFF7C2FB2268284B9A4228D03E
:101180004FF04022536843F0020353602168238EDE
:101190009BB232460C31A06BFFF7B0FB226853685C
:1011A00043F0010353602368DA6912F4806F14D1AD
:1011B000DA6942F48062DA612268184B9A420AD0F6
:1011C0004FF04022D36943F48063D361B6E7144AF9
:1011D000CCE7134AD6E7124AF4E7DA6902F4407220
:1011E000B2F5407FAAD100220192DA6801929B6891
:1011F0000193019BA2E70120704701202EE7012007
:101200002CE702202AE700BFF90E0008B10F000802
:10121000030F0008ED0E0008290F000800380040F9
:101220000034004090F83C30DBB2012B4BD001235E
:1012300080F83C3090F83D30DBB2122B0ED090F8A5
:101240003D30DBB2222B0FD090F83D30DBB2322B99
:1012500010D0002380F83C3018467047026853686D
:1012600023F002035360F4E70268536823F001039C
:101270005360EEE7436893B1B3F5007F0FD0026887
:10128000536823F0010353600268104B9A4218D050
:101290004FF04022536823F002035360D9E70268FD
:1012A000536823F0020353600268084B9A4206D049
:1012B0004FF04022536823F001035360C9E7044A0A
:1012C000F8E7034AE6E70220704700BF0038004015
:1012D0000034004090F83C30DBB2012B54D00123A5
:1012E00080F83C3090F83D30DBB2122B17D090F8EC
:1012F0003D30DBB2222B18D090F83D30DBB2322BE0
:1013000019D00368DA6912F4806F03D1DA6942F404
:101310008062DA61002380F83C301846704702682A
:10132000536843F002035360EBE70268536843F0ED
:1013300001035360E5E7436893B1B3F5007F0FD035
:101340000268536843F00103536002680F4B9A42EE
:1013500018D04FF04022536843F002035360D0E7A7
:101360000268536843F0020353600268074B9A42D5
:1013700006D04FF04022536843F001035360C0E7AA
:10138000034AF8E7024AE6E70220704700380040C7
:101390000034004090F83C30DBB2012B4ED010B549
:1013A000012380F83C300268536823F00203536045
:1013B0000268536823F001035360036A012B17D0BE
:1013C0000446406B08B1FFF7D3FAA06B08B1FFF7F2
:1013D000CFFA2268D36923F48063D361236A012B97
:1013E0001FD0012384F83D30002084F83C0010BD5C
:1013F0000268134B9A4210D04FF04022536823F0FA
:101400000203536002680E4B9A4208D04FF040220C
:10141000536823F001035360D2E70A4AEEE7094A12
:10142000F6E72268064B9A4206D04FF04022D36975
:1014300023F48063D361D4E7024AF8E702207047BF
:101440000038004000340040C369012B19D0134B11
:101450005B6813F4800F19D0104B5B6803F03F03F7
:101460000F48B0FBF3F30D4AD2F88400C0F38810A4
:1014700000FB03F0D2F88430C3F30273B0FBF3F047
:1014800070470122074B1A6007487047034B5B689F
:1014900003F03F030548B0FBF3F3E4E700380240F4
:1014A00000127A005C0147420080BB000024F40077
:1014B000002800F0FE8070B50446436863B1B3F5C0
:1014C000807F09D0B3F5007F06D0B3F5407F03D00D
:1014D000C421794801F07CFDA3685BB1102B09D0D1
:1014E000202B07D0302B05D0B02B03D0C52172485C
:1014F00001F06EFDE368012B07D9032B05D0052B06
:1015000003D0C6216C4801F063FD2369B3F5007F69
:1015100001D0002B74D16369A3F5FA51674A914257
:1015200005D9022B03D0C821634801F051FDA369FE
:101530002BB1082B03D0C9215F4801F049FDE369B5
:10154000012B03D9CA215C4801F042FD94F83D30DB
:10155000002B5AD0022284F83D202168CB6923F465
:101560007B6323F00F03CB6123681A622368DE6973
:10157000636993425AD0E368002B4CD10125204681
:10158000FFF762FF2369B3F5007F46D06D01B0FB22
:10159000F5F000EB800045006369B5FBF3F5053518
:1015A000474BA3FB0535ED0805F00102AB1A5B08BC
:1015B0001202991EFD2901D9002202232168206907
:1015C000024313430B626368A2681343E268134348
:1015D000A2691343334343F400632268D361236A4F
:1015E000012B04D94FF49371334801F0F1FC236AC5
:1015F000012B1ED000202064012384F83D3070BDF3
:10160000C7212D4801F0E4FC85E784F83C302046F2
:10161000FFF76AFC9EE70225B1E7000A00EB8000B5
:1016200045006369B5FBF3F50535B9E700252A46A2
:10163000BFE72268234B9A4223D04FF04022D36960
:1016400023F47B6323F00F03D36122681D4B9A427E
:1016500019D04FF04022022313622268194B9A429C
:1016600013D04FF04021CB696268B2F5007F0ED0F5
:1016700082B1B2F5407F1AD0B2F5807F0CD100253F
:101680000AE0114ADBE7104AE5E70F49EBE74FF4C0
:10169000807501E04FF48075A2681543E268154338
:1016A000A26915431D4345F40065CD61A2E70025FD
:1016B000F2E70120704700BFACA20008C0CE0200D4
:1016C000CDCCCCCC003800400034004030B583B0E5
:1016D000044603680F2B2DD8236813F0010F3CD06C
:1016E0006368012B05D9052B03D0FB21A14801F02C
:1016F0006FFCA14B9B6803F00C03042B24D09E4B82
:101700009B6803F00C03082B19D022799B4B1A70AD
:101710006368002B50D0FEF7E7FE0546964B1B682A
:1017200013F4003F19D1FEF7DFFE401B6428F5D902
:101730000320DEE1F6218F4801F04AFCCCE78E4B16
:101740005B6813F4800FE0D08B4B1B6813F4003FF1
:1017500003D06368002B00F0C981236813F0020FE7
:101760005DD0E368012B04D940F22D11814801F0CE
:101770002FFC23691F2B2ED87F4B9B6813F00C0F77
:1017800034D07D4B9B6803F00C03082B29D0E36811
:10179000002B75D001227A4B1A60FEF7A5FE054694
:1017A000754B1B6813F0020F5AD1FEF79DFE401BCC
:1017B0000228F5D903209CE1FEF796FE05466E4B04
:1017C0001B6813F4003FC8D0FEF78EFE401B642850
:1017D000F5D903208DE14FF49771664801F0F8FBCD
:1017E000CAE7654B5B6813F4800FD0D1624B1B686E
:1017F00013F0020F04D0E368012B01D0012078E13F
:101800005D48026822F0F8022169F82393FAA3F3F5
:10181000B3FA83F3DBB201FA03F3134303602368E3
:1018200013F0080F50D06369012B04D94FF4B7713E
:10183000504801F0CDFB6369002B33D00122514B9E
:101840001A60FEF751FE05464B4B5B6F13F0020F1B
:101850003AD1FEF749FE401B0228F5D9032048E1A2
:101860004548026822F0F8022169F82393FAA3F3AD
:10187000B3FA83F3DBB201FA03F313430360CEE759
:1018800000223F4B1A60FEF72FFE05463A4B1B68BD
:1018900013F0020FC3D0FEF727FE401B0228F5D934
:1018A000032026E10022374B1A60FEF71DFE054695
:1018B000314B5B6F13F0020F06D0FEF715FE401B95
:1018C0000228F5D9032014E1236813F0040F5FD038
:1018D000A368012B06D9052B04D04FF4CC71254801
:1018E00001F076FB00230193234B1A6C42F08052E7
:1018F0001A641B6C03F080530193019B224A136806
:1019000043F480731360FEF7EFFD05461E4B1B6822
:1019100013F4807F06D1FEF7E7FD401B0228F5D9BE
:101920000320E6E0227A194B1A70A36883B1FEF710
:10193000DBFD0546104B1B6F13F0020F28D1FEF79D
:10194000D3FD401B41F288339842F3D90320D0E005
:10195000FEF7CAFD0546084B1B6F13F0020F17D0A8
:10196000FEF7C2FD401B41F288339842F3D90320B1
:10197000BFE000BFF0A20008003802400238024079
:1019800000004742800E474200700040703802401D
:10199000A369022B1FD8A369002B00F0A980574A26
:1019A000926802F00C02082A00F0A580022B18D0E1
:1019B0000022534B1A60FEF797FD04464F4B1B68FD
:1019C00013F0007F00F09080FEF78EFD001B0228D0
:1019D000F4D903208DE040F2CD114A4801F0F8FA25
:1019E000D9E7E3693BB1B3F5800F04D04FF4EB7155
:1019F000444801F0EDFA236A3F2B28D8636A323B52
:101A0000B3F5BF7F29D8A36A022B0AD0042B08D0D4
:101A1000062B06D0082B04D040F2D911394801F02A
:101A2000D7FAE36A043B0B2B1DD80022344B1A6013
:101A3000FEF75AFD0546314B1B6813F0007F18D0A6
:101A4000FEF752FD401B0228F5D9032051E040F279
:101A5000D7112C4801F0BCFAD0E74FF4EC712948BB
:101A600001F0B6FACFE74FF4ED71264801F0B0FA75
:101A7000DBE7E369226A1343616A47F6C07292FAB0
:101A8000A2F2B2FA82F2D2B201FA02F21343A26ACD
:101A90005208013A4FF4403191FAA1F1B1FA81F1C3
:101AA000C9B28A401343E16A4FF0706292FAA2F21F
:101AB000B2FA82F2D2B201FA02F213430F4A536031
:101AC00001220F4B1A60FEF70FFD04460B4B1B68FB
:101AD00013F0007F06D1FEF707FD001B0228F5D9A1
:101AE000032006E0002004E0002002E0012000E0E6
:101AF000002003B030BD0120FBE700BF00380240EA
:101B000060004742F0A2000870B504460D46036825
:101B1000013B0E2B11D8072D15D8804B1B6803F005
:101B20000F039D4215D9EBB27C4A1370136803F082
:101B30000F039D420DD0012070BD4FF40E71784807
:101B400001F046FAE7E740F23921754801F040FA22
:101B5000E3E7236813F0020F1DD0A368A3B1802B25
:101B600012D0902B10D0A02B0ED0B02B0CD0C02BAD
:101B70000AD0D02B08D0E02B06D0F02B04D04FF4A5
:101B80001471674801F024FA664A936823F0F00361
:101B9000A1680B439360236813F0010F69D0636859
:101BA000032B29D86368012B2CD09A1E012A30D927
:101BB0005C4A126812F0020F00F0AD8059498A6841
:101BC00022F0030213438B60FEF78EFC0646636827
:101BD000012B25D0022B32D0032B3FD0514B9B68D9
:101BE00013F00C0F45D0FEF77FFC801B41F28833C9
:101BF0009842F3D9032070BD40F25721484801F0C4
:101C0000E7F9CFE7474A126812F4003FD6D1012026
:101C100070BD444A126812F0007FCFD1012070BD20
:101C2000404B9B6803F00C03042B22D0FEF75CFCB6
:101C3000801B41F288339842F2D9032070BD394BA2
:101C40009B6803F00C03082B13D0FEF74DFC801BA0
:101C500041F288339842F2D9032070BD314B9B6822
:101C6000FEF742FC801B41F288339842F6D90320EC
:101C700070BD2A4B1B6803F00F039D4209D2EAB2E4
:101C8000264B1A701B6803F00F039D4201D0012000
:101C900070BD236813F0040F19D0E36883B1B3F566
:101CA000805F0DD0B3F5A05F0AD0B3F5C05F07D059
:101CB000B3F5E05F04D040F2B521194801F088F98E
:101CC000184A936823F4E053E1680B439360236858
:101CD00013F0080F1AD0236983B1B3F5805F0DD0DC
:101CE000B3F5A05F0AD0B3F5C05F07D0B3F5E05FEE
:101CF00004D04FF42F710A4801F06AF9094A936839
:101D000023F46043216943EAC10393600F2000F08C
:101D10008FFE002070BD012070BD00BF003C02405E
:101D2000F0A2000800380240224B9B6803F00C032D
:101D3000042B3DD0082B01D01F4870471D4B58681D
:101D400000F03F005B6813F4800F20D01B4AB2FB09
:101D5000F0F2184B586847F6C073184093FAA3F393
:101D6000B3FA83F3DBB2D84000FB02F0114B5B689F
:101D700003F440334FF4403292FAA2F2B2FA82F204
:101D8000D2B2D34001335B00B0FBF3F070470A4A94
:101D9000B2FBF0F2074B586847F6C073184093FA4D
:101DA000A3F3B3FA83F3DBB2D84000FB02F0DDE724
:101DB00002487047003802400024F40000127A0004
:101DC00008B5FFF7B1FF094B9A6802F0F002F02363
:101DD00093FAA3F3B3FA83F3DBB222FA03F3044AD0
:101DE000D35CD840034B186008BD00BF00380240E8
:101DF000E0A200080800002008B5FFF7E1FF084B4B
:101E00009A6802F4E0524FF4E05393FAA3F3B3FA62
:101E100083F3DBB222FA03F3024AD35CD84008BD55
:101E200000380240E0A200080F2303600B4B9A68C1
:101E300002F0030242609A6802F0F00282609A683F
:101E400002F4E052C2609B68DB0803F4E0530361D4
:101E5000034B1B6803F00F030B6070470038024010
:101E6000003C024030B583B005460368013B062BB9
:101E70001ED82B6813F0010F55D0AB68023B052B21
:101E80001CD86B68323BB3F5BF7F1DD800225C4B7A
:101E90001A60FEF729FB04465A4B1B6813F0006FCB
:101EA00018D0FEF721FB001B0228F5D903203FE0E4
:101EB00040F21661544801F08BF8DAE740F21C61F9
:101EC000514801F085F8DCE740F21D614E4801F011
:101ED0007FF8DBE76A6847F6C07393FAA3F3B3FAB7
:101EE00083F3DBB29A40A9684FF0E04393FAA3F37F
:101EF000B3FA83F3DBB201FA03F31343414AC2F8A6
:101F0000843001223E4B1A60FEF7EEFA04463D4B48
:101F10001B6813F0006F06D1FEF7E6FA001B0228DB
:101F2000F5D9032004E02B6813F0020F02D1002042
:101F300003B030BD00230193324B1A6C42F0805243
:101F40001A641B6C03F080530193019B2F4A1368A2
:101F500043F480731360FEF7C7FA04462B4B1B68EB
:101F600013F4807F06D1FEF7BFFA001B0228F5D9D3
:101F70000320DDE7234B1B6FEA68534013F4407FD7
:101F80003CD0204A136F23F44070214901240C6097
:101F900000240C60106713F0020F13D1EB6803F4F8
:101FA0004072B2F5407F1ED0164A936823F4F813AE
:101FB000936014490B6FEA68C2F30B0213430B677B
:101FC0000020B5E7FEF790FA04460E4B1B6F13F0A6
:101FD000020FE3D1FEF788FA001B41F288339842E2
:101FE000F3D90320A4E707498A6822F4F81223F002
:101FF000704323F4407313438B60DAE7002097E7C4
:10200000680047420038024020A3000800700040EA
:10201000400E4742032303601249D1F8842047F65B
:10202000C0731A4093FAA3F3B3FA83F3DBB222FA34
:1020300003F34360D1F8842002F0E0424FF0E04324
:1020400093FAA3F3B3FA83F3DBB222FA03F38360C8
:102050008B6803F4F8130A6F02F440721343C360F1
:10206000704700BF00380240F8B505460F461646D7
:102070001C462B689B683B40B34238D0B4F1FF3F0D
:10208000F7D02CB1FEF730FA069BC01A8442F0D884
:102090002A68536823F0E00353606B68B3F5827FCE
:1020A0000BD0AB6AB3F5005F14D0012385F8513033
:1020B000002385F850300320F8BDAB68B3F5004F1E
:1020C00002D0B3F5806FECD12A68136823F0400387
:1020D0001360E6E72A68136823F400531B041B0C03
:1020E00013602A68136843F400531360DDE700208F
:1020F000F8BD10B582B0044600920B460022802144
:10210000FFF7B2FF034620B1636D43F02003636520
:102110000323184602B010BD70470000002800F0ED
:10212000B88010B5044603685B4A93420CD0A2F510
:102130007842934208D002F58062934204D04FF473
:102140008671564800F044FF63683BB1B3F5827F67
:1021500004D040F20D11514800F03AFFA36853B18A
:10216000B3F5806F07D0B3F5004F04D04FF48771FB
:102170004A4800F02DFFE368B3F5006F01D0002B53
:102180007BD1A369B3F5007F08D03BB1B3F5802FB5
:1021900004D04FF48871414800F01AFFE36993B10D
:1021A000082B10D0102B0ED0182B0CD0202B0AD0BF
:1021B000282B08D0302B06D0382B04D040F2111138
:1021C000364800F005FF236A33B1802B04D04FF46A
:1021D0008971324800F0FCFE636A33B1102B04D0E1
:1021E00040F213112D4800F0F3FE636A83B92369AE
:1021F00033B1022B04D04FF48B71284800F0E8FE75
:102200006369012B04D940F21711244800F0E0FE65
:102210000023A36294F85130002B34D0022384F8B9
:1022200051302268136823F040031360226863680A
:10223000A1680B43E1680B4321690B4361690B43C0
:10224000A16901F400710B43E1690B43216A0B435F
:10225000A16A0B4313602268638B03F00403616A75
:102260000B4353602268D36923F40063D3610020D9
:102270006065012384F8513010BD40F20F1107480A
:1022800000F0A6FE7DE784F850302046FFF744FFBB
:10229000C4E70120704700BF0030014054A300088C
:1022A0007047000020B310B504460368114A9342FA
:1022B0000CD0A2F57842934208D002F58062934296
:1022C00004D04FF4AF710C4800F082FE022384F872
:1022D00051302268136823F0400313602046FFF753
:1022E000DFFF0020606584F8510084F8500010BDC5
:1022F000012070470030014054A300082DE9F0414F
:1023000082B004460E4617461D4683683BB1B3F5BE
:10231000004F04D04FF4E2714E4800F059FE94F89B
:102320005030012B03D1022002B0BDE8F08101231F
:1023300084F85030FEF7D8F8804694F85130DBB27C
:10234000012B07D00220012384F85130002384F8A8
:102350005030E9E7002E6FD0002F6FD0032384F8B0
:102360005130002363652663A786E786A363A387AE
:10237000E38763642364A368B3F5004F0DD023683B
:102380001A6812F0400F03D11A6842F040021A6036
:10239000E368B3F5006F2AD110E02268136843F4B4
:1023A00080431360EBE7002D4AD0B5F1FF3F05D025
:1023B000FEF79AF8A0EB0800854243D9E38E23B3D9
:1023C00023689A6812F0020FEDD036F8022BDA601B
:1023D000E38E013BE386F1E7002D35D0B5F1FF3FF9
:1023E00005D0FEF781F8A0EB080085422ED9E38ED8
:1023F0005BB123689A6812F0020FEDD016F8012B3A
:102400001A73E38E013BE386F1E7424629462046F4
:10241000FFF76FFE18B1636D43F020036365A36897
:1024200033B901932368DA6801929B680193019B99
:10243000636D6BB9002086E7012084E7012082E705
:10244000032080E703207EE703207CE703207AE770
:10245000012078E754A300082DE9F84304460E460E
:1024600017469846089D83683BB994F85030012B75
:1024700009D102231846BDE8F8834FF44A71604839
:1024800000F0A6FDF1E7012384F85030FEF72CF8A8
:10249000814694F85130DBB2012B16D06368B3F556
:1024A000827F07D00223012284F85120002284F881
:1024B0005020DFE7A368002B40F0968094F851305D
:1024C000DBB2042B01D00223EDE7002E00F08E805A
:1024D000002F00F08D80B8F1000F00F08B8094F891
:1024E0005130DBB2012B1BD000236365A763A4F836
:1024F0003E80A4F83C802663A4F83680A4F834809B
:102500002364636423681A6812F0400F03D11A68C9
:1025100042F040021A60E368B3F5006F36D10CE078
:10252000052384F85130DFE7B5F1FF3F05D0FDF713
:10253000DBFFA0EB090085425ED9E38E13B9E28F81
:10254000002A42D053B123689A6812F0020F05D0D6
:1025500036F8022BDA60E38E013BE386E38F002B33
:10256000E2D023689A6812F0010FDDD0DB6827F80B
:10257000023BE38F013BE387D6E7B5F1FF3F05D090
:10258000FDF7B2FFA0EB0900854237D9E38E0BB906
:10259000E28FD2B153B123689A6812F0020F05D0CE
:1025A00032781A73E38E013BE3860136E38F002B0A
:1025B000E3D023689A6812F0010FDED0DB683B702D
:1025C000E38F013BE3870137D7E74A462946204698
:1025D000FFF78FFD034600283FF465AF636D43F0BE
:1025E0002003636501235EE702235CE701235AE7CA
:1025F000012358E7012356E7032354E7032352E757
:1026000054A300087047000010B504460368234A2D
:10261000934237D0B3F1804F34D0A2F57C4293423D
:1026200030D002F5806293422CD002F58062934252
:1026300028D002F58062934224D002F58062934252
:1026400020D002F5704293421CD002F570529342A2
:1026500018D002F58062934214D002F58062934252
:1026600010D0A2F5983293420CD002F580629342CA
:1026700008D002F58062934204D04FF4B27108484A
:1026800000F0A6FC2268D36843F00103D3602268FF
:10269000136843F001031360002010BD00000140E7
:1026A00084A30008704770477047704710B5044610
:1026B00003681A6912F0020F11D0DA6812F0020FE3
:1026C0000DD06FF002021A610123037603689B6943
:1026D00013F0030F70D0FFF7E6FF00232376236883
:1026E0001A6912F0040F12D0DA6812F0040F0ED03B
:1026F0006FF004021A610223237623689B6913F4A6
:10270000407F5FD02046FFF7CEFF0023237623686B
:102710001A6912F0080F12D0DA6812F0080F0ED002
:102720006FF008021A61042323762368DB6913F033
:10273000030F4ED02046FFF7B6FF00232376236811
:102740001A6912F0100F12D0DA6812F0100F0ED0C2
:102750006FF010021A61082323762368DB6913F4F3
:10276000407F3DD02046FFF79EFF0023237623685D
:102770001A6912F0010F03D0DA6812F0010F36D196
:1027800023681A6912F0800F03D0DA6812F0800F04
:1027900034D123681A6912F0400F03D0DA6812F0BE
:1027A000400F32D123681A6912F0200F03D0DA6883
:1027B00012F0200F30D110BDFFF774FF2046FFF755
:1027C00073FF8AE72046FFF76DFF2046FFF76CFF97
:1027D0009BE72046FFF766FF2046FFF765FFACE763
:1027E0002046FFF75FFF2046FFF75EFFBDE76FF073
:1027F00001021A61204600F069F9C1E76FF080021A
:102800001A61204600F013F9C3E76FF040021A6125
:102810002046FFF74AFFC5E76FF020021A61204605
:1028200000F004F9C7E700000368454A90424AD027
:10283000B0F1804F49D0A2F57C42904247D002F5DA
:102840008062904245D002F58062904243D002F50A
:102850007842904235D000221AB123F070034A68C2
:102860001343374A90423AD0B0F1804F50D0A2F58E
:102870007C4290424ED002F5806290424CD002F5EC
:10288000806290424AD002F57842904248D002F5E8
:102890007052904246D002F58062904244D002F5D8
:1028A0008062904242D0A2F59832904240D002F528
:1028B000806290423ED002F5806290420DD00022AC
:1028C0000EE00122C8E70122C6E70122C4E7012287
:1028D000C2E70122C0E70122BEE7012200E0012297
:1028E0001AB123F44073CA68134303608B68C36250
:1028F0000B688362124B984220D003F580639842A4
:102900001AD000230BB10B690363012343617047A5
:102910000122E5E70122E3E70122E1E70122DFE707
:102920000122DDE70122DBE70122D9E70122D7E717
:102930000122D5E70122D3E70123E3E70123E1E701
:102940000000014000286BD010B504460368354AEA
:10295000934236D0B3F1804F33D0A2F57C429342FC
:102960002FD002F5806293422BD002F58062934211
:1029700027D002F58062934223D002F58062934211
:102980001FD002F5704293421BD002F57052934261
:1029900017D002F58062934213D002F58062934211
:1029A0000FD0A2F5983293420BD002F58062934289
:1029B00007D002F58062934203D0D9211A4800F073
:1029C00007FBA3685BB1102B09D0202B07D0402B4D
:1029D00005D0602B03D0DA21134800F0F9FA2369FF
:1029E0004BB1B3F5807F06D0B3F5007F03D0DB2178
:1029F0000D4800F0EDFA94F839305BB1022384F809
:102A00003930211D2068FFF70FFF012384F839308A
:102A1000002010BD84F838302046FFF7F3FDEDE7C5
:102A2000012070470000014084A3000870477047F0
:102A300000B589B0002201463620FDF787FD36201B
:102A4000FDF7C8FD00230193174B1A6C42F01002EA
:102A50001A641B6C03F010030193019B02A903A8E5
:102A6000FFF7E2F9069BBBB9FFF7C6F90F4BA3FBD3
:102A700000239B0C013B0E480E4A026040F2E732F5
:102A8000C2604360002303618360FFF75BFF38B1DE
:102A9000012009B05DF804FBFFF7AEF94000E5E75F
:102AA0000348FFF7B1FDF4E70038024083DE1B4323
:102AB0005804002000100040034B1A68D36823F02C
:102AC0000103D360704700BF5804002008B5FDF72C
:102AD00003FD08BD08B50248FFF7E8FD08BD00BFCB
:102AE0005804002008B5034800F094FA012000F0D3
:102AF0005FF800BFB4A3000808B503460C4A12688B
:102B00005AB10B4A1068033323F003030344094A04
:102B1000934206D8064A136008BD0749044A11606B
:102B2000EFE702F087FC0C2303604FF0FF3008BD95
:102B30008002002000FC012030C6012030B50025B5
:102B4000132420462946ABBE0446204630BD38B586
:102B5000044602F06FFC0546FFF7F0FF28602046B0
:102B600038BDB0F1FF3F00D0704708B5FFF7EFFF69
:102B700008BD000010B504460B4B186808B1836B04
:102B80005BB1132C0CD8094B53F83430B3F1FF3F31
:102B900008D0064800EBC40010BD02F091FCF0E73D
:102BA000002010BD002010BDA80000200803002058
:102BB00000B530B9044D182420462946ABBE044662
:102BC000FEE7024DF7E700BF2600020023000200E7
:102BD0002DE9F04184B0234F01970326039600238B
:102BE0000293012401AD20462946ABBE80461E4B10
:102BF000C3F80080019703960423029320462946D8
:102C0000ABBE8046194BC3F800800197039608239A
:102C1000029320462946ABBE0446154B1C60B4F116
:102C2000FF3F01D000230AE0104B1A68104B1A60D6
:102C3000F8E74FF0FF310F4A42F833100133132BFE
:102C4000F7DD0C4B084A12681A6000225A600749E7
:102C500009689960DA600649096819615A6104B027
:102C6000BDE8F081C8A30008000300200403002091
:102C7000FC020020080300202DE9F04F83B08346BA
:102C80008A46324B00934F2301936C4615273846F2
:102C90002146ABBE0746002F43D1B94600222B4B3D
:102CA00083F84F20009DB8463E4626E002F0B2FC75
:102CB000204490F90130002B11DB092C0DD0334654
:102CC000D3B9082F2EDC222C0BD0272C09D0204B77
:102CD00043F82750013701260EE00123F0E70123D6
:102CE000EEE70135A046F2E7334617E0334615E03C
:102CF00000232B70C8464E46013595F900408CB133
:102D0000002ED3D0A045F3D002F084FC204490F9EB
:102D10000130002BEADB092CE6D04B46002BEBD030
:102D2000E6E700272FB9094B00221A70084A136002
:102D30000137074B002243F82720CBF80070CAF870
:102D40000030FFF745FF03B0BDE8F08F840200209C
:102D5000D402002030B585B001900291039201ADFC
:102D6000062420462946ABBE04462046FFF7F9FE5E
:102D700005B030BD70B50E461546FFF7FBFE68B1D5
:102D800004462A4631460068FFF7E4FFB0F1FF3FF2
:102D900003D0281A63680344636070BD02F04AFBE5
:102DA000092303604FF0FF3070BDF0B583B00C46CF
:102DB0001546FFF7DFFEC0B10646022D1CD8012DD7
:102DC00021D0022D34D03368009301946F460A2538
:102DD00028463946ABBE05462846FFF7C2FE002806
:102DE0003DDB7460204603B0F0BD02F023FB0923F5
:102DF00003604FF0FF30F6E702F01CFB1623036080
:102E00004FF0FF30EFE74368E41801D40025D8E71E
:102E100002F010FB162303607368002B19DD002CF1
:102E20001ADD02F007FB8B2303604FF0FF30DAE777
:102E3000336802AF47F8083D0C2528463946ABBE3B
:102E400005462846FFF78DFEB0F1FF3FCBD0044486
:102E5000B9E74FF0FF30C6E74FF0FF30C3E74FF060
:102E6000FF30C0E708B5FFF7A0FF08BD30B585B05B
:102E700001900291039201AD052420462946ABBE84
:102E800004462046FFF76DFE05B030BD70B50E4616
:102E90001446FFF76FFE70B10546224631460068C2
:102EA000FFF7E4FF021E11DBA01A6B6803446B609E
:102EB000944207D070BD02F0BDFA092303604FF0C1
:102EC000FF3070BD0020FFF742FE70BD4FF0FF30B5
:102ED000F0E730B583B002AD45F8040D022420467A
:102EE0002946ABBE04462046FFF73BFE03B030BD8B
:102EF00038B50446FFF73EFE68B10546013C012C9B
:102F000010D92868FFF7E5FF034610B94FF0FF32EC
:102F10002A60184638BD02F08DFA092303604FF08D
:102F2000FF33F6E7044B9A681B699A42E9D14FF0E8
:102F3000FF3303600023ECE70803002070B50C4664
:102F4000FFF718FEA8B10646636843F400536360B8
:102F50004FF48063E3620C2528463146ABBE05463C
:102F60002846FFF7FEFDB0F1FF3F01D020610020B1
:102F700070BD02F05FFA092303604FF0FF3070BDAF
:102F800038B505460C463C220021204602F062FB83
:102F900021462846FFF7D2FF38BD38B5FFF7EAFDD6
:102FA00080B10546092420462946ABBE044620468A
:102FB000012C06D002F03EFA0446FFF7BFFD206068
:102FC000002038BD02F036FA09230360002038BD26
:102FD00008B50A460146024800F004F8FFF782FDF2
:102FE000CCA300080FB400B583B004AB53F8042B96
:102FF00001938021064804F043FA002803DD0146CE
:10300000034800F04FF803B05DF804EB04B07047DC
:10301000A803002010B5044603F09DFA014620469F
:1030200000F040F80121024800F03CF810BD00BF5C
:1030300090A40008F0B585B006460C46174B1B68F7
:1030400083B9174B0193042302930323039301AF26
:10305000012528463946ABBE0546B5F1FF3F14D0E1
:103060000E4B1D600D4B1B6801930296039401AE3D
:10307000052528463146ABBE0546B5F1FF3F07D0D2
:10308000AC4208D0601B05B0F0BD4FF0FF30FAE74E
:103090004FF0FF30F7E74FF0FF30F4E7280400204F
:1030A000C8A3000808B5FFF7C5FF08BD08B500F0C4
:1030B00003F9044AD2F8883043F47003C2F8883028
:1030C00008BD00BF00ED00E0F8B504460D46174608
:1030D0001E462748FFF786FF21682648FFF782FF34
:1030E00061682548FFF77EFFA1682448FFF77AFF53
:1030F000E1682348FFF776FF21692248FFF772FF56
:1031000061692148FFF76EFFA1692048FFF76AFF58
:10311000E1691F48FFF766FF1E48FFF763FF294676
:103120001D48FFF75FFF1D4CE16A1D48FFF75AFF7E
:10313000216B1C48FFF756FFE16B1B48FFF752FF5E
:1031400015F0800F0AD115F4004F0CD11748FFF786
:1031500049FF06991648FFF745FFF8BD394615485F
:10316000FFF740FFEFE731461348FFF73BFFEDE77E
:10317000F8A3000808A4000818A4000828A4000860
:1031800038A4000848A4000858A4000868A400084F
:1031900078A4000888A4000894A4000800ED00E0CA
:1031A000A4A40008B4A40008C4A40008F4A400085F
:1031B000FCA40008D4A40008E4A4000838B583697E
:1031C0001B888B4201D0002038BD04460368456847
:1031D000013B302B68D8DFE803F045211C1C5D3033
:1031E000332D19196719191919193619246719274F
:1031F000673967676767676767676767676767678D
:103200006767676767676767671919004FF0FF337C
:103210000360A3690233A361012038BD002303606A
:10322000F7E700230360F4E700232B606B60AB60DB
:10323000EB60EEE700230360EBE7AB680360E8E7D1
:1032400000230360E5E700230360E2E7BFF34F8F4D
:103250001649CA6802F4E062154B1343CB60BFF312
:103260004F8FFEE71349286803F06BF970B96B685C
:1032700013B901232360CCE7042B02D1022323607E
:10328000C7E7082B02D103232360C2E74FF0FF33C7
:103290002360BEE72B68023B012B02D9AB680360B9
:1032A000B7E700230360B4E7002038BD00ED00E07D
:1032B0000400FA05C8A300080F49D1F8883043F488
:1032C0007003C1F888300D4B1A6842F001021A6091
:1032D000002098601A6822F0847222F480321A600A
:1032E000074A5A601A6822F480221A60D8604FF0A8
:1032F00000638B60704700BF00ED00E000380240C3
:103300001030002410F0AA3F14BF01220022030C49
:103310001B0403B11023134310F0FF2200D0082236
:10332000134310F0F03200D004221A4310F0CC30D6
:1033300001D1104370470220FBE708B501F079FC8A
:10334000002008BD38B50546052001F07DFCEDB232
:10335000012219212846FFF7F0FF044603228021AD
:103360002846FFF7EAFF04444EF222028121284654
:10337000FFF7E3FF04444FF4C1424FF48261284653
:10338000FFF7DBFF04444AF280024FF483612846D2
:10339000FFF7D3FF04444AF280024FF484612846C9
:1033A000FFF7CBFF04444FF460424FF48561284699
:1033B000FFF7C3FF04444DF61A4240F2434128464A
:1033C000FFF7BBFF044466224FF496612846FFF7DF
:1033D000B4FF04440B224FF48B612846FFF7ADFF86
:1033E0000444002240F212212846FFF7A6FF0444BD
:1033F000002240F271112846FFF79FFF04440C227F
:1034000040F25E312846FFF798FF044400224FF453
:1034100035712846FFF791FF044400228021284699
:10342000FFF78BFF0444052001F00EFC204638BD59
:103430002DE9F84345F2226399420BD04AF6444302
:10344000994207D042F61133994203D0504E4901B8
:10345000002303E04F4EFAE70133DBB21D4603EBD6
:103460004304A2004C4CA2587AB19142F4D305EB2C
:1034700045029400484A224452689142ECD2464A9E
:10348000144494F80880677A02E010274FF001088E
:103490004FEA8609B9FBF1F11FFA81F9C5B20022A2
:1034A00040F291112846FFF748FF044649F40042D4
:1034B0004FF4C9712846FFF740FF0444002240F250
:1034C00093112846FFF739FF044401224FF4CA71D3
:1034D0002846FFF732FF04444046FFF713FF1FFA68
:1034E00080F84FEA082292B242F0080240F29511A9
:1034F0002846FFF722FF04444FEA881292B242F0B6
:1035000008024FF4CB712846FFF717FF04443846F2
:10351000FFF7F8FE820092B240F299112846FFF7B9
:103520000CFF0444012240F291112846FFF705FFE9
:103530000444062240F604412846FFF7FEFE0444F8
:1035400000224FF4D5712846FFF7F7FE0444092204
:103550004FF4D5712846FFF7F0FE0444052001F032
:1035600073FB0B4B9E4209D048F2452240F20111F9
:103570002846FFF7E2FE2044BDE8F88340F24522EA
:1035800040F201112846FFF7D8FE2044BDE8F88339
:10359000000077010088580140A5000870B500239D
:1035A0001C460F4A52F83320BAB18A4202D0013386
:1035B000DBB2F5E7C5B20A4B03EBC40422794FF442
:1035C00081712846FFF7B9FE064662794FF4A06183
:1035D0002846FFF7B2FE304470BD002070BD00BF2A
:1035E0007CA5000808B5FFF7D9FF002008BD38B555
:1035F000C5B2022240F204512846FFF79EFE04465F
:10360000042240F202512846FFF797FE04440120AD
:1036100001F01AFB002240F21A512846FFF78DFEF6
:103620000444002240F219512846FFF786FE044464
:1036300041F2100240F207512846FFF77EFE044493
:1036400041F210024FF4A1612846FFF776FE0444D0
:10365000202240F206512846FFF76FFE0444202244
:1036600040F205512846FFF768FE0444032240F269
:103670001A512846FFF761FE0444032240F2195113
:103680002846FFF75AFE204438BD38B5012921D01D
:10369000C5B24FF4207240F219412846FFF74DFEA3
:1036A00004464FF4207240F21D412846FFF745FEC4
:1036B00004444FF4207240F211412846FFF73DFECA
:1036C00004444FF4207240F215412846FFF735FEBE
:1036D000204438BDC5B24FF4407240F2194128462B
:1036E000FFF72BFE04464FF4407240F21D4128467E
:1036F000FFF723FE04444FF4407240F21141284684
:10370000FFF71BFE04444FF4407240F21541284677
:10371000FFF713FE204438BD08B50021FFF7B5FFC1
:1037200008BD08B50121FFF7B0FF08BD08B50021AD
:10373000FFF7ABFF08BD08B50121FFF7A6FF08BDE5
:1037400070B50646642933D801EB4103C1EB8313FE
:103750002E4A82FB0302DC17C4EB6214E4B2BF2CD6
:1037600028D800294DD000213046FFF78EFF0546AE
:10377000F6B244F40074224640F219413046FFF795
:10378000DCFD0544224640F21D413046FFF7D5FDE1
:103790000544224640F211413046FFF7CEFD054474
:1037A000224640F215413046FFF7C7FD284470BD60
:1037B0006424D4E700213046FFF767FF0446F6B2E1
:1037C00040F2BF2240F219413046FFF7B6FD0444F3
:1037D00040F2BF2240F21D413046FFF7AEFD0444E7
:1037E00040F2BF2240F211413046FFF7A6FD0444EB
:1037F00040F2BF2240F215413046FFF79EFD2044C3
:1038000070BD01213046FFF740FF70BD1F85EB51B1
:1038100070B505460139032900F29D80DFE801F00B
:1038200002356161C6B220224FF4D2613046FFF703
:1038300084FD0446802240F291613046FFF77DFD11
:10384000044421224FF4D3613046FFF776FD04444F
:10385000802240F299613046FFF76FFD0444002258
:103860004FF4D0613046FFF768FD044400224FF466
:10387000D1613046FFF761FD04440F224FF48061AF
:10388000E8B2FFF75AFD204470BDC6B200224FF4E3
:10389000D2613046FFF751FD044600224FF4D36158
:1038A0003046FFF74AFD044420224FF4D0613046F1
:1038B000FFF743FD0444802240F281613046FFF768
:1038C0003CFD044421224FF4D1613046FFF735FD21
:1038D0000444802240F289613046FFF72EFD044403
:1038E000CBE7C6B220224FF4D2613046FFF725FD68
:1038F0000446802240F291613046FFF71EFD0444E9
:1039000021224FF4D3613046FFF717FD0444802293
:1039100040F299613046FFF710FD044420224FF435
:10392000D0613046FFF709FD0444802240F28161F6
:103930003046FFF702FD044421224FF4D1613046A6
:10394000FFF7FBFC0444802240F289613046FFF718
:10395000F4FC044491E700248FE708B500221146E7
:10396000C0B2FFF7EAFC08BD08B501F061F908BD77
:1039700010B5044601F018F90021E0B201F05FF93A
:1039800010BD08B501F05BF9C0B208BD2DE9F843E0
:10399000894615461C46DDF82080099F4FF4E063F8
:1039A000A8F800304FF4E1633B80C6B2B8F80010CD
:1039B0003046FFF7E6FF288039883046FFF7E1FF01
:1039C00020802B88502B0DD02388512B18D0B9F193
:1039D000020F05D02B88602B1FD02388612B2AD0A3
:1039E000BDE8F8834FF408613046FFF7CAFF28802E
:1039F000B9F1020FE8D04FF40863A8F80030E3E70C
:103A000040F688013046FFF7BCFF2080B9F1020F75
:103A1000DDD040F688033B80D9E74FF41061304693
:103A2000FFF7AFFF2880B9F1010FD6D04FF4106334
:103A3000A8F80030D1E740F608113046FFF7A1FFA3
:103A40002080B9F1010FCBD040F608133B80C7E7C7
:103A500070B584B005460C4602AB01930DF10A0324
:103A6000009303AB0DF10E020021FFF78FFF022C34
:103A700000F08280032C00F0B580012C2DD014239F
:103A8000ADF80E301523ADF80C30EEB230224FF405
:103A900040713046FFF751FC044642F290224FF449
:103AA00048713046FFF749FC04444FF4207240F25D
:103AB00021313046FFF741FC044490224FF4497114
:103AC0003046FFF73AFC04444FF4207240F22531AF
:103AD0003046FFF732FC04442DE01223ADF80E30DF
:103AE0001323ADF80C30EEB20C224FF44071304687
:103AF000FFF723FC04464FF452524FF44671304610
:103B0000FFF71BFC04444FF4207240F21D31304695
:103B1000FFF713FC04444FF4207240F21931304691
:103B2000FFF70BFC044440F2A71240F21921304683
:103B3000FFF703FC0444EDB2BDF80E20BDF80A10F7
:103B40002846FFF7FAFB0444BDF80C20BDF8081026
:103B50002846FFF7F2FB0444802240F20171284618
:103B6000FFF7EBFB0444802240F209712846FFF77F
:103B7000E4FB204404B070BD1023ADF80E301123D7
:103B8000ADF80C30EEB203224FF440713046FFF72F
:103B9000D4FB04464FF42A524FF444713046FFF7E9
:103BA000CCFB044480224FF445713046FFF7C5FB3F
:103BB00004444FF4207240F211313046FFF7BDFB50
:103BC00004444FF4207240F215313046FFF7B5FB44
:103BD000044440F2A7124FF406713046FFF7ADFBE4
:103BE0000444A8E71423ADF80E301523ADF80C30CB
:103BF000EEB230224FF440713046FFF79EFB044690
:103C000042F290224FF448713046FFF796FB04448D
:103C10004FF4207240F221313046FFF78EFB04440E
:103C200090224FF449713046FFF787FB04444FF46C
:103C3000207240F225313046FFF77FFB04447AE7DB
:103C40002DE9F047054617469A465FFA81F80E0AB5
:103C500000F0AAFF5FFA85F9002211464846FFF7F7
:103C60006CFB04462846FFF76DFB51462846FFF7DC
:103C7000DFFB044451462846FFF790FC0444092228
:103C80004FF48B614846FFF758FB044401224FF480
:103C900000714846FFF751FB0444D5224FF40471EC
:103CA0004846FFF74AFB04442846FFF7A0FC41467C
:103CB0002846FFF7ADFD31462846FFF7C9FE3946D5
:103CC0002846FFF73DFD2046BDE8F0872DE9F0418D
:103CD00084B004460F461646984602AB01930DF198
:103CE0000A03009303AB0DF10E020121FFF74EFE14
:103CF000F7B1E5B2012F4ED003224FF46C61284694
:103D0000FFF71BFB424640F6C1612846FFF715FB53
:103D1000BDF80E204FF410612846FFF70EFB8022FD
:103D200040F601112846FFF708FB6023ADF80E307E
:103D3000FEB1E5B2012E30D0032240F6C461284620
:103D4000FFF7FBFABDF8282040F6C5612846FFF7CB
:103D5000F4FABDF80C2040F608112846FFF7EDFAFA
:103D6000802240F609112846FFF7E7FA6123ADF8F3
:103D70000C30E4B2BDF80E20BDF80A102046FFF763
:103D8000DCFABDF80C20BDF808102046FFF7D5FA84
:103D900004B0BDE8F0810122AFE70122CDE72DE9B3
:103DA000F04F85B005468A4691461C46DDF83880BE
:103DB0000F9F109E02AB01930DF10A03009303AB1A
:103DC0000DF10E020221FFF7E1FDBAF1000F50D014
:103DD0007CB3E8B294F9002002F10C0394F90120BD
:103DE0000C32920142EAC32212B294F902300C332F
:103DF00042EA430242F0010292B24FF4616183460B
:103E0000FFF79BFA94F9032002F10C0394F90420C4
:103E10000C32920142EAC322BAF1010F08BF42F00C
:103E20000102B2FA82F2520940F611615846FFF7D8
:103E300084FA6FB1002409E004F6126137F8142007
:103E400089B2E8B2FFF779FA0134A4B2122CF3D99F
:103E5000ECB2BDF80E204FF408612046FFF76DFA72
:103E6000802240F681012046FFF767FA5023ADF823
:103E70000E30B9F1000F52D0B8F1000F2FD0ECB2D4
:103E800098F9002002F10C0398F901200C329201FC
:103E900042EAC32212B298F902300C3342EA4302DA
:103EA00042F0010292B240F626612046FFF745FA41
:103EB00098F9032002F10C0398F904200C329201C6
:103EC00042EAC322B9F1010F08BF42F00102B2FA7F
:103ED00082F2520940F627612046FFF72EFA6EB1B2
:103EE000002409E004F6286136F8142089B2E8B20B
:103EF000FFF723FA0134A4B2122CF3D9ECB2BDF8C7
:103F00000C2040F688012046FFF717FA802240F681
:103F100089012046FFF711FA5123ADF80C30EDB2BC
:103F2000BDF80E20BDF80A102846FFF706FABDF8C6
:103F30000C20BDF808102846FFF7FFF905B0BDE8D2
:103F4000F08F000030B595B0002401941B4B1A6C23
:103F500042F080521A641B6C03F080530193019B62
:103F60000294174B1A6842F440421A601B6803F42B
:103F700040430293029B0123039304930225099576
:103F80004FF480030A9308230B934FF4A8730C9308
:103F90000D9507230E9303A8FDF798FB0F230F93AE
:103FA000109511944FF4A05312934FF48053139330
:103FB00005210FA8FDF7A8FD15B030BD003802405F
:103FC0000070004008B5FFF777F9074AD2F888304B
:103FD00043F47003C2F88830FCF768FAFEF76CFD12
:103FE000FFF7B0FF08BD00BF00ED00E00B4AD3684B
:103FF00043F08073D3600A4B00225A601A6802F0C3
:1040000001021A601A6842F001021A605A6800BF81
:1040100000BF00BF5868801A704700BFF0ED00E095
:10402000001000E008B5FCF741FAFFF7DFFF4BF6A0
:104030008032502140F2033000F04CFC032000F0AD
:104040003DFD012000F014FD4FF4E0420549064813
:1040500000F09CFC054B187800F000FD00F0C2F861
:1040600008BD00BF9804002098E400204000002014
:1040700010B5FFF7D7FF3CE00024264B5C6006E05C
:10408000254B33F91420254B23F814200134B4F5C3
:10409000605F11D214F0010FF2D01F4B33F91400FE
:1040A00000F028FF00221E4B00F08AFF01F09AF971
:1040B0001A4B23F81400E9E700221A4B1A701DE08E
:1040C000154A32F91310154A22F813100133B3F5CB
:1040D000E04F09D213F0010FF2D00F4A32F913105A
:1040E0000E4A22F81310F1E700220E4B1A7000F06E
:1040F0007FF80C4B1B78DBB2012BBDD0094B1B7832
:10410000DBB2022BF3D10022024B5A604FF4605312
:10411000DDE700BF001000E09804002098E40020D4
:104120000000E03F2C0400200222014B1A7070476F
:104130002C0400200122014B1A7070472C0400202F
:1041400008B50120FCF7C2FE08BD000008B5024B0F
:10415000986BFCF735FC08BDF0C4012008B5024B94
:10416000586BFCF72DFC08BDF0C401207047FEE73A
:10417000FEE7FEE7FEE770477047704708B5FCF7BB
:10418000ABF9FCF73EFA08BD38B500240CE0651C1D
:1041900029460F48FEF726FF00230E4A224401213C
:1041A0000D4800F059F92C46042CF0D900240CE0FD
:1041B000651C29460948FEF715FF0023084A2244DA
:1041C0000121054800F048F92C46042CF0D938BDEF
:1041D00018A60008300400203CA6000840A60008ED
:1041E0003804002008B501210020FCF711F908BDB2
:1041F000474B1B78002B00F08A8000B583B0444BFE
:104200001B78013B0D2B0ED8DFE803F007131826AF
:10421000343D464D58636E777A7D4FF4E0423D4918
:104220003D4800F0B3FB0022394B1A7003B05DF833
:1042300004FB3A4B187800F011FCF4E7002000F082
:10424000E9FB4FF4FA5000F043FC4FF4E0423149EF
:10425000314800F09BFBE6E7002000F0DBFB4BF66B
:10426000803000F035FC4FF4E0422A492A4800F043
:104270008DFBD8E72A4B1B882A4A12880121084661
:1042800000F000FCCFE7264B1B88264A128802214B
:10429000084600F0F7FBC6E700231A461946184601
:1042A00000F0F0FBBFE7204B0193204B0093204B25
:1042B000204A0121084600F0F1FBB4E71A4B0193B4
:1042C0001A4B00931B4B1A4A0121084600F0E6FBEB
:1042D000A9E7154B0193154B0093174B174A012182
:1042E000084600F0DBFB9EE70020019000900346AB
:1042F0000246014600F0D2FB95E700F063FB92E72F
:1043000000F074FB8FE7002000F084FB8BE7704720
:10431000440400209804002098E40020400000207D
:10432000A4000020A20000206C0000204400002017
:104330009C0000209400002038040020300400205D
:10434000012800D0704710B582B00020FCF7A2F819
:10435000012808D0FCF7C8F8234B1B68C01A1428A2
:1043600006D802B010BDFCF7BFF81F4B1860F8E785
:1043700000F028FB1D48FEF735FE002407E01C4B2B
:1043800003EBC4035A681B48FEF72CFE0134184B9C
:1043900013F834100029F2D100230DF10702194659
:1043A000154800F059F89DF80720144B1A701B7837
:1043B000DBB2022B08D00A2B12D000F017FBFCF75F
:1043C00093F8094B1860CCE70D4C21780D48FEF7A7
:1043D00009FE0023224619460B4800F03DF8ECE7A1
:1043E000FFF7D2FEE9E700BF40040020CCA500089B
:1043F00054A60008E4A50008F0A500084404002025
:1044000040000020F8A500080CA6000810B5114BCC
:10441000186842685368013B5360002B14DB426804
:104420001368591C11601C7801F0F4F8204443789B
:1044300013F0040FEBD02D2CE9D0064B1B68596804
:10444000204602F0E9FF10BD416801F0B9FF0446C3
:10445000EAE700BFA80000200FB410B584B006AB97
:1044600053F8040B01930FE0FFF7D0FF03A91D4899
:1044700001F0E2FF0028F7D09DF80C302370019B7B
:104480001A1D0192186838B3FEF7ACFD019A131D8E
:104490000193116802F1080301935468012906D0C1
:1044A000022910D00029EAD1E0E7FFF7AFFF03A906
:1044B0000C4801F0C1FF0028F7D09DF90C302370A3
:1044C000DDE7FFF7A3FF02A9074801F0B5FF0028C9
:1044D000F7D0029B2360D2E704B0BDE8104004B0DF
:1044E000704700BF14A8000818A800082DE9F0477D
:1044F00088B000270197274C236B43F00203236306
:10450000236B03F002030193019B4FF0010ACDF8E6
:1045100010A04FF00208CDF8188005974FF480598D
:1045200008AD45F8149D1C4E29463046FCF722FB89
:10453000CDF810804FF4005303934FF00508CDF8E9
:104540001C8029463046FCF715FB4FF400430393CB
:10455000CDF81C8029463046FCF70CFB4FF4804315
:104560000393CDF81C8029463046FCF703FB5246E6
:1045700049463046FCF790FC0297236C43F4804395
:104580002364236C03F480430293029B08B0BDE8CC
:10459000F08700BF00380240000402402DE9F04FD0
:1045A0008DB000240194694D2B6B43F001032B6304
:1045B0002B6B03F001030193019B02942B6B43F0DF
:1045C00004032B632B6B03F004030293029B0394FD
:1045D0002B6B43F004032B632B6B03F00403039357
:1045E000039B04942B6B43F004032B632B6B03F0AE
:1045F00004030493049B022308930A93099410274D
:10460000079706260B9607A95148FCF7B3FA4FF413
:104610008069CDF81C900B96DFF844B107A9584685
:10462000FCF7A8FA4FF4805307930B9607A9584656
:10463000FCF7A0FA4FF40068CDF81C804FF0050A93
:10464000CDF82CA007A95846FCF794FA80230793CD
:104650000B9607A95846FCF78DFA05942B6C43F48A
:1046600000432B642B6C03F400430593059B0694D5
:104670002B6B43F400132B632B6B03F40013069393
:10468000069BDFF8E0B0CBF80440CBF80840CBF84D
:104690000C40CBF81090CBF814804FF40050CBF8BE
:1046A00018004FF48071CBF81C104FF40032CBF897
:1046B0002020CBF824400323CBF82830CBF82C4023
:1046C000CBF8304005F520551035CBF80050214D82
:1046D0004FF0806EC5F804E04FF0400EC5F808E0DA
:1046E000EC60C5F81090C5F81480A861E9612A62F1
:1046F00004226A62AB62EC622C63174B2B60584653
:10470000FCF7D0F82846FCF7CDF85846FBF7B2FF87
:104710002846FBF7AFFF114BC3F838B0CBF8383061
:104720005D63AB63224631460B20FBF70FFF224649
:1047300051463846FBF70AFF0B20FBF74BFF384684
:10474000FBF748FF0DB0BDE8F08F00BF0038024016
:104750000000024098C4012088600240F0C401209B
:10476000000802408CC5012008B51148114B0360B8
:10477000DA6922F48062DA6100238360C360036136
:1047800001220262C3610C4B1B68436108238361F1
:104790004FF440734360FCF7C3FB30B10448FCF7AF
:1047A00087FE0520FBF7A6FE08BDFFF7F7FEF5E73D
:1047B000F0C40120003C0040E4C5012008B5FFF72B
:1047C00095FE0D480D4B0360002383604FF4827209
:1047D00042604FF40062C260036143612822C261FB
:1047E000036283620722C2624FF4007282614362F5
:1047F000FDF794FC08BD00BF34C50120003800401F
:1048000008B50348FDF74EFDFFF7D8FF08BD00BF10
:1048100034C5012030B583B0C0F30E43ADF800308D
:10482000ADF802004FF6FF73ADF80430ADF8061096
:104830000D4C00224FF480512046FCF72DFB4FF425
:104840008053042269460948FDF758FD05460122B8
:104850004FF480512046FCF71FFB0DB903B030BD6B
:10486000FFF7CEFFFAE700BF0004024034C5012085
:1048700070B586B0030C43F40043ADF81030ADF8CA
:1048800012004FF6FF73ADF814300022ADF8162079
:104890000E4C4FF480512046FCF7FEFA4FF4805541
:1048A0000095042302AA04A90948FDF7D5FD064690
:1048B000012229462046FCF7EFFA1EB9BDF80E008A
:1048C00006B070BDFFF79CFFF8E700BF0004024090
:1048D00034C501202DE9F04184B080460F461446CE
:1048E000FF25002301E00133DBB2072B06D8214A64
:1048F00052F82320A242F6D11D46F4E76846FDF7A0
:1049000089FB15F0070F1CD0012300931A4B53F8B5
:1049100025300193194B53F8253002936846FDF773
:10492000A1FA174B1C60174B9B683420984745F23F
:104930000213984210D001259DB1284604B0BDE86D
:10494000F081012300934FF48173019303230293B9
:104950006846FDF787FAE4E70A4A0B4B1A60002520
:10496000EAE7094B1B681E6823463A464146342055
:10497000B047E2E71CA800083CA800085CA80008B3
:10498000E4C501200C0000204804002038B504468E
:1049900015461346B2F5E04F28BF4FF4E0430A46F0
:1049A00001460648FCF748FB054B1B68DB682A46B6
:1049B000214634209847002038BD00BFF0C40120B4
:1049C0004804002010B5074B1B681B69342098472A
:1049D00010B10124204610BD04460348FCF722FC18
:1049E000F8E700BF48040020F0C4012010B5074BD1
:1049F0001B685B693420984710B10124204610BD24
:104A000004460348FCF766FCF8E700BF48040020B2
:104A1000F0C4012038B504460D48FCF7BBFC0D4B33
:104A20001B689B6921463420984770B90546012CC4
:104A300001D0284638BD0120FBF75CFD00224FF471
:104A400000610548FCF728FAF3E70125F1E700BF0C
:104A5000F0C40120480400200010024008B5034BB8
:104A60001B681B6A01463420984708BD4804002093
:104A700008B5034B1B685B6A01463420984708BDA4
:104A80004804002000B583B0009313460A4601464F
:104A90003420FFF71BF903B05DF804FB10B584B0B8
:104AA000079C0294069C0194009313460A46014613
:104AB0003420FFF774F904B010BD000008B5034BB3
:104AC0001B689B6A01463420984708BD48040020B3
:104AD00030B585B00446FF25002301E00133DBB289
:104AE000072B06D8184A52F82320A242F6D11D46B9
:104AF000F4E76846FDF78EFA15F0070F15D101238C
:104B000000934FF481730193032302936846FDF7EA
:104B1000A9F90E4B1C60FFF727FE0D4B1B68DB69E4
:104B200021463420984705B030BD01230093094B3E
:104B300053F825300193084B53F82530029368460B
:104B4000FDF790F9E5E700BF1CA80008E4C50120C7
:104B5000480400203CA800085CA8000808B50268CA
:104B6000034B9A4200D008BDFFF7DEFAFBE700BF17
:104B7000003C004008B50268034B9A4200D008BDD3
:104B8000FFF7D8FAFBE700BF003C00407047000089
:104B900008B50268034B9A4200D008BDFFF7F6FF44
:104BA000FBE700BF003C00402DE9F04186B0002744
:104BB00000971D4B1A6B42F010021A631B6B03F037
:104BC00010030093009B4FF48068CDF80480012609
:104BD0000296022304930397144C01A92046FBF785
:104BE000C9FF4FF40065019501A92046FBF7C2FFFC
:104BF000FFF7E4FD324641462046FCF74DF93A46C0
:104C000029462046FCF748F93220FBF773FC324670
:104C100029462046FCF740F90520FBF76BFCFFF71F
:104C2000A3FD06B0BDE8F08100380240001002404C
:104C3000704708B508461146FFF7ECFD08BD08B5FA
:104C40000846FFF715FE08BD08B5FBF753FC08BD85
:104C500081F0004102E000BF83F0004330B54FEA2D
:104C600041044FEA430594EA050F08BF90EA020F9A
:104C70001FBF54EA000C55EA020C7FEA645C7FEA2D
:104C8000655C00F0E2804FEA5454D4EB5555B8BF50
:104C90006D420CDD2C4480EA020281EA030382EAC1
:104CA000000083EA010180EA020281EA0303362D53
:104CB00088BF30BD11F0004F4FEA01314FF4801C26
:104CC0004CEA113102D0404261EB410113F0004F38
:104CD0004FEA03334CEA133302D0524263EB4303EF
:104CE00094EA050F00F0A780A4F10104D5F1200E8D
:104CF0000DDB02FA0EFC22FA05F2801841F10001E8
:104D000003FA0EF2801843FA05F359410EE0A5F1BB
:104D100020050EF1200E012A03FA0EFC28BF4CF0EC
:104D2000020C43FA05F3C01851EBE37101F00045A2
:104D300007D54FF0000EDCF1000C7EEB00006EEBAF
:104D40000101B1F5801F1BD3B1F5001F0CD3490839
:104D50005FEA30004FEA3C0C04F101044FEA445290
:104D600012F5800F80F09A80BCF1004F08BF5FEA17
:104D7000500C50F1000041EB045141EA050130BDF7
:104D80005FEA4C0C404141EB010111F4801FA4F19A
:104D90000104E9D191F0000F04BF01460020B1FAEF
:104DA00081F308BF2033A3F10B03B3F120020CDA27
:104DB0000C3208DD02F1140CC2F10C0201FA0CF005
:104DC00021FA02F10CE002F11402D8BFC2F1200C6A
:104DD00001FA02F120FA0CFCDCBF41EA0C01904020
:104DE000E41AA2BF01EB0451294330BD6FEA040469
:104DF0001F3C1CDA0C340EDC04F11404C4F1200254
:104E000020FA04F001FA02F340EA030021FA04F365
:104E100045EA030130BDC4F10C04C4F1200220FABC
:104E200002F001FA04F340EA0300294630BD21FAFA
:104E300004F0294630BD94F0000F83F4801306BFC0
:104E400081F480110134013D4EE77FEA645C18BFB4
:104E50007FEA655C29D094EA050F08BF90EA020F4B
:104E600005D054EA000C04BF1946104630BD91EA43
:104E7000030F1EBF0021002030BD5FEA545C05D146
:104E80004000494128BF41F0004130BD14F5800485
:104E90003CBF01F5801130BD01F0004545F0FE41F9
:104EA00041F470014FF0000030BD7FEA645C1ABF2E
:104EB000194610467FEA655C1CBF0B46024650EA65
:104EC000013406BF52EA033591EA030F41F4002191
:104ED00030BD00BF90F0000F04BF0021704730B517
:104EE0004FF4806404F132044FF000054FF00001EC
:104EF00050E700BF90F0000F04BF0021704730B5AD
:104F00004FF4806404F1320410F0004548BF404281
:104F10004FF000013EE700BF42004FEAE2014FEAD6
:104F200031014FEA02701FBF12F07F4393F07F4FB1
:104F300081F06051704792F0000F14BF93F07F4FE3
:104F4000704730B54FF4607401F0004521F0004126
:104F500020E700BF50EA010208BF704730B54FF0AC
:104F600000050AE050EA010208BF704730B511F0B1
:104F7000004502D5404261EB41014FF4806404F1E9
:104F800032045FEA915C3FF4DCAE4FF003025FEA6B
:104F9000DC0C18BF03325FEADC0C18BF033202EBF3
:104FA000DC02C2F1200300FA03FC20FA02F001FA4D
:104FB00003FE40EA0E0021FA02F11444C1E600BFEC
:104FC00070B54FF0FF0C4CF4E06C1CEA11541DBF9F
:104FD0001CEA135594EA0C0F95EA0C0F00F0DEF86A
:104FE0002C4481EA030621EA4C5123EA4C5350EA4F
:104FF000013518BF52EA033541F4801143F48013A0
:1050000038D0A0FB02CE4FF00005E1FB02E506F030
:105010000042E0FB03E54FF00006E1FB03569CF085
:10502000000F18BF4EF0010EA4F1FF04B6F5007F8B
:1050300064F5407404D25FEA4E0E6D4146EB0606FD
:1050400042EAC62141EA55514FEAC52040EA5E5086
:105050004FEACE2EB4F1FD0C88BFBCF5E06F1ED830
:10506000BEF1004F08BF5FEA500E50F1000041EB67
:10507000045170BD06F0004646EA010140EA020014
:1050800081EA0301B4EB5C04C2BFD4EB0C0541EA36
:10509000045170BD41F480114FF0000E013C00F34B
:1050A000AB8014F1360FDEBF002001F0004170BD6F
:1050B000C4F10004203C35DA0C341BDC04F1140488
:1050C000C4F1200500FA05F320FA04F001FA05F214
:1050D00040EA020001F0004221F0004110EBD370E1
:1050E00021FA04F642EB06015EEA430E08BF20EA0D
:1050F000D37070BDC4F10C04C4F1200500FA04F3B0
:1051000020FA05F001FA04F240EA020001F0004141
:1051100010EBD37041F100015EEA430E08BF20EAB4
:10512000D37070BDC4F1200500FA05F24EEA020EFC
:1051300020FA04F301FA05F243EA020321FA04F02B
:1051400001F0004121FA04F220EA020000EBD370E2
:105150005EEA430E08BF20EAD37070BD94F0000FE2
:105160000FD101F00046400041EB010111F4801F16
:1051700008BF013CF7D041EA060195F0000F18BFC7
:10518000704703F00046520043EB030313F4801F03
:1051900008BF013DF7D043EA0603704794EA0C0FBD
:1051A0000CEA135518BF95EA0C0F0CD050EA4106D3
:1051B00018BF52EA4306D1D181EA030101F0004150
:1051C0004FF0000070BD50EA410606BF1046194678
:1051D00052EA430619D094EA0C0F02D150EA013684
:1051E00013D195EA0C0F05D152EA03361CBF1046C5
:1051F00019460AD181EA030101F0004141F0FE4164
:1052000041F470014FF0000070BD41F0FE4141F4E7
:10521000780170BD70B54FF0FF0C4CF4E06C1CEAE7
:1052200011541DBF1CEA135594EA0C0F95EA0C0F9C
:1052300000F0A7F8A4EB050481EA030E52EA033557
:105240004FEA013100F088804FEA03334FF0805578
:1052500045EA131343EA12634FEA022245EA1115A5
:1052600045EA10654FEA00260EF000419D4208BF56
:10527000964244F1FD0404F5407402D25B084FEA03
:105280003202B61A65EB03055B084FEA32024FF4AF
:1052900080104FF4002CB6EB020E75EB030E22BF0C
:1052A000B61A754640EA0C005B084FEA3202B6EBCC
:1052B000020E75EB030E22BFB61A754640EA5C007B
:1052C0005B084FEA3202B6EB020E75EB030E22BF0B
:1052D000B61A754640EA9C005B084FEA3202B6EB0C
:1052E000020E75EB030E22BFB61A754640EADC00CB
:1052F00055EA060E18D04FEA051545EA16754FEA2D
:1053000006164FEAC30343EA52734FEAC2025FEA4A
:105310001C1CC0D111F4801F0BD141EA00014FF0D9
:1053200000004FF0004CB6E711F4801F04BF0143AA
:105330000020B4F1FD0C88BFBCF5E06F3FF6AFAEC6
:10534000B5EB030C04BFB6EB020C5FEA500C50F156
:10535000000041EB045170BD0EF0004E4EEA1131D9
:1053600014EB5C04C2BFD4EB0C0541EA045170BDE0
:1053700041F480114FF0000E013C90E645EA060E24
:105380008DE60CEA135594EA0C0F08BF95EA0C0F52
:105390003FF43BAF94EA0C0F0AD150EA01347FF49A
:1053A00034AF95EA0C0F7FF425AF104619462CE771
:1053B00095EA0C0F06D152EA03353FF4FDAE1046D4
:1053C000194622E750EA410618BF52EA43067FF425
:1053D000C5AE50EA41047FF40DAF52EA43057FF4B5
:1053E000EBAE12E74FEA410212F5001215D211D5C9
:1053F0006FF47873B3EB625212D94FEAC12343F0D2
:10540000004343EA505311F0004F23FA02F018BF53
:10541000404270474FF00000704750EA013005D11C
:1054200011F0004008BF6FF0004070474FF00000DF
:10543000704700BF014B1868704700BFA8000020EC
:10544000014900F0C5B800BFC5820008002310B5AF
:10545000044603604360836081814366C2810361C7
:1054600043618361194608225C3000F0F3F8054B74
:105470006362054BA362054BE362054B2462236321
:1054800010BD00BFBD640008DF6400081765000898
:105490003B65000870B54A1E682555430E4605F168
:1054A000740100F0DFF8044640B1002180E84200BA
:1054B0000C30A06005F1680200F0CCF8204670BD09
:1054C000836910B5044633BB8364C3640365124B20
:1054D000124A1B688262984204BF0123836100F074
:1054E0001FF86060204600F01BF8A060204600F026
:1054F00017F80022E06004216068FFF7A7FF01228F
:105500000921A068FFF7A2FF02221221E068FFF73D
:105510009DFF0123A36110BDDCA8000841540008D1
:10552000F8B51C4B1E68B369074613B93046FFF740
:10553000C7FF4836B4687368013B03D5336833B19D
:105540003668F7E7B4F90C506DB16834F4E704211C
:105550003846FFF79FFF30600028F1D10C233B60F5
:1055600004462046F8BD4FF6FF73E3810123A38173
:1055700065662560A560656025616561A561082295
:10558000294604F15C0000F065F86563A563A56435
:10559000E564E6E7DCA800082DE9F041884600F163
:1055A0004804002614B93046BDE8F081A568676854
:1055B000013F01D52468F5E7AB89012B06D9B5F980
:1055C0000E30013302D02846C04706436835EFE766
:1055D0002DE9F8438046894600F14804002614B9B5
:1055E0003046BDE8F883A5686768013F01D52468A7
:1055F000F5E7AB89012B07D9B5F90E30013303D09C
:1056000029464046C84706436835EEE7D0F8EC0027
:1056100070470000044B054A1B681B6A002B08BF3B
:105620001346D3F8EC007047A80000200C010020BE
:1056300082B001B901A942B14BB113780B60127865
:10564000101C18BF012002B070471046FBE76FF036
:105650000100F8E702440346934200D1704703F883
:10566000011BF9E770B5CD1C25F0030508350C2D9D
:1056700038BF0C25002D064601DBA94203D90C23B7
:105680003360002070BD03F0FEF9234A1468214600
:1056900091B9224C23681BB9304600F0BDFE206052
:1056A0002946304600F0B8FE431C26D10C23336057
:1056B000304603F0E9F9E4E70B685B1B1AD40B2BC7
:1056C0000FD90B60CD50CC18304603F0DDF904F152
:1056D0000B00231D20F00700C31A1BD05A42E250D2
:1056E00070BD8C420DBF63684B686360136018BF68
:1056F0000C46E9E70C464968CAE7C41C24F00304D9
:10570000A04205D0211A304600F086FE0130CDD0EF
:105710002560D9E770BD00BF4C0400205004002074
:105720002DE9FF4755EC104B0D9FDDF830A0002D03
:105730000E4691461946B8BF22462B4627F0200751
:10574000BBBF05F100431D4600232D23B8BF1446FF
:10575000462F0B7004D0452F00D10136022100E006
:10576000032103AB019302AB00933246534645EC51
:10577000104B01F051FF472F804602D119F0010F65
:1057800026D0462F08EB060911D198F80030302BAF
:105790000AD1002200232046294604F081FC18B9D2
:1057A000C6F10106CAF80060DAF800309944002218
:1057B00000232046294604F073FC38B93022039BAD
:1057C000994505D9591C03911A70F8E7CDF80C904A
:1057D000039B0E9AA3EB08034046136004B0BDE898
:1057E000F087F7B503460029B8BF494203F8022BFA
:1057F000B4BF2D222B220929427020DD0DF10702B2
:1058000017460A2691FBF6F506FB15113031092DD6
:1058100002F8011C02F1FF34294609DC3031023A5A
:1058200004F8011CBA421C4604D3201A03B0F0BD90
:105830002246E7E712F8011B03F8011BF2E73022CA
:105840001C46114404F8022B5970EEE72DE9F04F85
:105850008DB00C46DDF8588016461F46054603F00D
:105860008DF803680493184600F075FE00230A9330
:10587000D8F800300590073323F0070303F108023E
:1058800094F818A0D4F800B0C8F80020D3E9002399
:10589000C4E91223D4E9128929F000430793CDF813
:1058A00018804FF0FF32A54BDDE9060104F02AFC19
:1058B000002840F0FB814FF0FF32A04BDDE90601EC
:1058C00004F002FC002840F0F18100220023404651
:1058D000494604F0EFFB10B12D2384F84330984B78
:1058E000984ABAF1470F8CBF9046984603232BF095
:1058F0000402236122604FF00009009733460BAA8F
:105900002146284600F0E2F9013040F093804FF044
:10591000FF300DB0BDE8F08F61684B1C4BF4806226
:105920003FD106236360002303930AAB029309ABC4
:10593000009349EC108B0DF123032260CDF804A0F5
:1059400061682846FFF7ECFE0AF0DF03472B80462C
:1059500009D1099BD81C02DB6268934257DDAAF18A
:10596000020A5FFA8AFABAF1650F099934D8013947
:10597000524604F150000991FFF733FF0A9A831849
:10598000012A8146236102DC2268D10701D5013357
:1059900023619DF82330002BAFD02D2384F84330B2
:1059A000ABE7BAF1670F02D0BAF1470FBBD189B1AB
:1059B000002303930AAB029309AB009349EC108BCD
:1059C0002260CDF804A00DF123032846FFF7A8FEBE
:1059D0008046BEE70123A5E7BAF1660F19D1002979
:1059E00063680CDD216113B92268D20702D5013347
:1059F0000B442361099BA3654FF00009C9E713B964
:105A00002268D00701D50233F3E70123F1E74FF015
:105A1000670A099B0A9A934205DB22682361D10732
:105A2000E8D50133E5E7002BD4BFC3F1020301231E
:105A30001344DEE723685A0507D4236942463146FA
:105A40002846B84701302BD161E7BAF1650F40F223
:105A5000E28000220023D4E9120104F021FB002897
:105A60003CD00123384A31462846B84701303FF43C
:105A70004EAF0A9B099A9A4202DB2368D8070FD5DA
:105A8000059B049A31462846B84701303FF43FAFA2
:105A90004FF0000804F11A090A9B013B984512DBFC
:105AA00023689B0709D54FF0000804F11909E36842
:105AB0000B9A9B1A9845C0F2EE80E0680B9B9842C7
:105AC000B8BF184625E701234A4631462846B8475D
